:020000040800F2
:1000000000000120CD1400089D1300089F13000874
:10001000A1130008A3130008A513000800000000A6
:10002000000000000000000000000000A71300080E
:10003000A913000800000000AB130008AD1300086E
:100040001D1500081D1500081D1500081D150008C8
:100050001D1500081D1500081D1500081D150008B8
:100060001D1500081D1500081D1500081D150008A8
:100070001D1500081D1500081D1500081D15000898
:100080001D1500081D1500081D1500081D15000888
:100090001D1500081D1500081D1500081D15000878
:1000A0001D1500081D1500081D1500081D15000868
:1000B0001D15000800000000000000001D150008CC
:1000C0001D15000800000000000000001D150008BC
:1000D000000000001D1500081D15000800000000AC
:1000E0001D1500081D15000800000000000000009C
:1000F0000000000000000000000000000000000000
:100100000000000000000000000000001D150008B5
:1001100000000000000000001D1500081D1500086B
:100120001D1500081D1500081D1500081D150008E7
:100130001D15000800000000000000000000000085
:100140001D1500081D1500081D1500081D150008C7
:100150001D1500081D1500081D1500081D150008B7
:100160001D1500081D1500081D15000800000000E1
:100170001D1500081D15000800000000000000000B
:0C0180001D1500081D1500081D150008C5
:1001C00053B94AB9002908BF00281CBF4FF0FF31BE
:1001D0004FF0FF3000F00CB8ADF1080C6DE904CE23
:1001E00003F04EFADDF804E0DDE9022304B07047C5
:1001F000704700BF00000000000000000000000089
:1002000001F0FF01102A2BDB10F0070F08D010F8C7
:10021000013B013A8B422DD010F0070F42B3F6D1CB
:10022000F0B441EA012141EA014122F007047FF0E4
:1002300000070023F0E80256083C85EA010586EA3B
:10024000010685FA47F5A3FA87F586FA47F6A5FA77
:1002500087F68EB9EED1F0BC01F0FF0102F0070283
:1002600032B110F8013B013A83EA010313B1F8D12E
:100270000020704701387047002D06BF354603380F
:10028000073815F0010F07D1013015F4807F02BF48
:10029000013015F4C03F0130F0BC0138704700BF99
:1002A000844641EA000313F003036DD1403A41D381
:1002B00051F8043B40F8043B51F8043B40F8043B40
:1002C00051F8043B40F8043B51F8043B40F8043B30
:1002D00051F8043B40F8043B51F8043B40F8043B20
:1002E00051F8043B40F8043B51F8043B40F8043B10
:1002F00051F8043B40F8043B51F8043B40F8043B00
:1003000051F8043B40F8043B51F8043B40F8043BEF
:1003100051F8043B40F8043B51F8043B40F8043BDF
:1003200051F8043B40F8043B51F8043B40F8043BCF
:10033000403ABDD2303211D351F8043B40F8043B6F
:1003400051F8043B40F8043B51F8043B40F8043BAF
:1003500051F8043B40F8043B103AEDD20C3205D37F
:1003600051F8043B40F8043B043AF9D2043208D077
:10037000D2071CBF11F8013B00F8013B01D30B88E9
:1003800003806046704700BF082A13D38B078DD0C7
:1003900010F003038AD0C3F10403D21ADB071CBF99
:1003A00011F8013B00F8013B80D331F8023B20F803
:1003B000023B7BE7043AD9D3013A11F8013B00F83C
:1003C000013BF9D20B7803704B7843708B788370C4
:1003D00060467047000000000000000000000000C0
:1003E000000000000000000000000000000000000D
:1003F00000000000000000000000000000000000FD
:1004000090F800F06DE9024520F007016FF0000C54
:1004100010F0070491F820F040F049804FF00004FC
:100420006FF00700D1E9002391F840F000F10800D7
:1004300082FA4CF2A4FA8CF283FA4CF3A2FA8CF30F
:100440004BBBD1E9022382FA4CF200F10800A4FA76
:100450008CF283FA4CF3A2FA8CF3E3B9D1E90423CA
:1004600082FA4CF200F10800A4FA8CF283FA4CF301
:10047000A2FA8CF37BB9D1E9062301F1200182FABB
:100480004CF200F10800A4FA8CF283FA4CF3A2FAC1
:100490008CF3002BC6D0002A04BF04301A4612BACF
:1004A000B2FA82F2FDE8024500EBD2007047D1E9D2
:1004B000002304F00305C4F100004FEAC50514F061
:1004C000040F91F840F00CFA05F562EA05021CBF32
:1004D00063EA050362464FF00004A9E781F000419A
:1004E00002E000BF83F0004330B54FEA41044FEA19
:1004F000430594EA050F08BF90EA020F1FBF54EAB4
:10050000000C55EA020C7FEA645C7FEA655C00F04F
:10051000E2804FEA5454D4EB5555B8BF6D420CDD20
:100520002C4480EA020281EA030382EA000083EAA3
:10053000010180EA020281EA0303362D88BF30BD43
:1005400011F0004F4FEA01314FF4801C4CEA113199
:1005500002D0404261EB410113F0004F4FEA0333F8
:100560004CEA133302D0524263EB430394EA050F83
:1005700000F0A780A4F10104D5F1200E0DDB02FAF2
:100580000EFC22FA05F2801841F1000103FA0EF286
:10059000801843FA05F359410EE0A5F120050EF14C
:1005A000200E012A03FA0EFC28BF4CF0020C43FA7D
:1005B00005F3C01851EBE37101F0004507D54FF08A
:1005C000000EDCF1000C7EEB00006EEB0101B1F5DA
:1005D000801F1BD3B1F5001F0CD349085FEA300020
:1005E0004FEA3C0C04F101044FEA445212F5800F2B
:1005F00080F09A80BCF1004F08BF5FEA500C50F1C8
:10060000000041EB045141EA050130BD5FEA4C0CAA
:10061000404141EB0101013C28BFB1F5801FE9D207
:1006200091F0000F04BF01460020B1FA81F308BF2A
:100630002033A3F10B03B3F120020CDA0C3208DDF6
:1006400002F1140CC2F10C0201FA0CF021FA02F1D1
:100650000CE002F11402D8BFC2F1200C01FA02F141
:1006600020FA0CFCDCBF41EA0C019040E41AA2BF66
:1006700001EB0451294330BD6FEA04041F3C1CDA2E
:100680000C340EDC04F11404C4F1200220FA04F04E
:1006900001FA02F340EA030021FA04F345EA0301F8
:1006A00030BDC4F10C04C4F1200220FA02F001FABA
:1006B00004F340EA0300294630BD21FA04F029463C
:1006C00030BD94F0000F83F4801306BF81F48011D5
:1006D0000134013D4EE77FEA645C18BF7FEA655C48
:1006E00029D094EA050F08BF90EA020F05D054EA1A
:1006F000000C04BF1946104630BD91EA030F1EBF1F
:100700000021002030BD5FEA545C05D14000494122
:1007100028BF41F0004130BD14F580043CBF01F515
:10072000801130BD01F0004545F0FE4141F47001FB
:100730004FF0000030BD7FEA645C1ABF19461046D6
:100740007FEA655C1CBF0B46024650EA013406BFD7
:1007500052EA033591EA030F41F4002130BD00BF96
:1007600090F0000F04BF0021704730B54FF4806453
:1007700004F132044FF000054FF0000150E700BFD4
:1007800090F0000F04BF0021704730B54FF4806433
:1007900004F1320410F0004548BF40424FF0000120
:1007A0003EE700BF42004FEAE2014FEA31014FEA63
:1007B00002701FBF12F07F4393F07F4F81F06051B2
:1007C000704732F07F4208BF704793F07F4F04BFFD
:1007D00041F40021704730B54FF4607401F00045DA
:1007E00021F000411CE700BF50EA010208BF70473A
:1007F00030B54FF000050AE050EA010208BF70472B
:1008000030B511F0004502D5404261EB41014FF493
:10081000806404F132045FEA915C3FF4D8AE4FF09B
:1008200003025FEADC0C18BF03325FEADC0C18BF7E
:10083000033202EBDC02C2F1200300FA03FC20FACF
:1008400002F001FA03FE40EA0E0021FA02F114441C
:10085000BDE600BF70B54FF0FF0C4CF4E06C1CEA35
:1008600011541DBF1CEA135594EA0C0F95EA0C0FA6
:1008700000F0DEF82C4481EA030621EA4C5123EA19
:100880004C5350EA013518BF52EA033541F4801148
:1008900043F4801338D0A0FB02CE4FF00005E1FBFB
:1008A00002E506F00042E0FB03E54FF00006E1FB45
:1008B00003569CF0000F18BF4EF0010EA4F1FF0488
:1008C000B6F5007F64F5407404D25FEA4E0E6D41C8
:1008D00046EB060642EAC62141EA55514FEAC520D9
:1008E00040EA5E504FEACE2EB4F1FD0C88BFBCF555
:1008F000E06F1ED8BEF1004F08BF5FEA500E50F106
:10090000000041EB045170BD06F0004646EA0101CB
:1009100040EA020081EA0301B4EB5C04C2BFD4EBFD
:100920000C0541EA045170BD41F480114FF0000EF6
:10093000013C00F3AB8014F1360FDEBF002001F064
:10094000004170BDC4F10004203C35DA0C341BDCDE
:1009500004F11404C4F1200500FA05F320FA04F0B0
:1009600001FA05F240EA020001F0004221F00041E4
:1009700010EBD37021FA04F642EB06015EEA430E57
:1009800008BF20EAD37070BDC4F10C04C4F1200587
:1009900000FA04F320FA05F001FA04F240EA02003A
:1009A00001F0004110EBD37041F100015EEA430E0B
:1009B00008BF20EAD37070BDC4F1200500FA05F22B
:1009C0004EEA020E20FA04F301FA05F243EA0203AA
:1009D00021FA04F001F0004121FA04F220EA0200B9
:1009E00000EBD3705EEA430E08BF20EAD37070BDFF
:1009F00094F0000F0FD101F00046400041EB0101DF
:100A000011F4801F08BF013CF7D041EA060195F0C0
:100A1000000F18BF704703F00046520043EB03037A
:100A200013F4801F08BF013DF7D043EA0603704767
:100A300094EA0C0F0CEA135518BF95EA0C0F0CD072
:100A400050EA410618BF52EA4306D1D181EA0301B8
:100A500001F000414FF0000070BD50EA410606BFB2
:100A60001046194652EA430619D094EA0C0F02D1F7
:100A700050EA013613D195EA0C0F05D152EA03363C
:100A80001CBF104619460AD181EA030101F000415A
:100A900041F0FE4141F470014FF0000070BD41F0A3
:100AA000FE4141F4780170BD70B54FF0FF0C4CF47D
:100AB000E06C1CEA11541DBF1CEA135594EA0C0F9C
:100AC00095EA0C0F00F0A7F8A4EB050481EA030EE9
:100AD00052EA03354FEA013100F088804FEA0333D0
:100AE0004FF0805545EA131343EA12634FEA02229E
:100AF00045EA111545EA10654FEA00260EF000415F
:100B00009D4208BF964244F1FD0404F5407402D2B0
:100B10005B084FEA3202B61A65EB03055B084FEA41
:100B200032024FF480104FF4002CB6EB020E75EB3E
:100B3000030E22BFB61A754640EA0C005B084FEA66
:100B40003202B6EB020E75EB030E22BFB61A7546E3
:100B500040EA5C005B084FEA3202B6EB020E75EB2E
:100B6000030E22BFB61A754640EA9C005B084FEAA6
:100B70003202B6EB020E75EB030E22BFB61A7546B3
:100B800040EADC0055EA060E18D04FEA051545EAA2
:100B900016754FEA06164FEAC30343EA52734FEA4B
:100BA000C2025FEA1C1CC0D111F4801F0BD141EAC4
:100BB00000014FF000004FF0004CB6E711F4801F29
:100BC00004BF01430020B4F1FD0C88BFBCF5E06F09
:100BD0003FF6AFAEB5EB030C04BFB6EB020C5FEA19
:100BE000500C50F1000041EB045170BD0EF0004E6E
:100BF0004EEA113114EB5C04C2BFD4EB0C0541EAA0
:100C0000045170BD41F480114FF0000E013C90E69C
:100C100045EA060E8DE60CEA135594EA0C0F08BF60
:100C200095EA0C0F3FF43BAF94EA0C0F0AD150EA5F
:100C300001347FF434AF95EA0C0F7FF425AF1046F2
:100C400019462CE795EA0C0F06D152EA03353FF41A
:100C5000FDAE1046194622E750EA410618BF52EA97
:100C600043067FF4C5AE50EA41047FF40DAF52EA6B
:100C700043057FF4EBAE12E74FF0FF3C06E000BF08
:100C80004FF0010C02E000BF4FF0010C4DF804CD15
:100C90004FEA410C7FEA6C5C4FEA430C18BF7FEAD5
:100CA0006C5C1BD001B050EA410C0CBF52EA430C03
:100CB00091EA030F02BF90EA020F0020704710F183
:100CC000000F91EA030F58BF994208BF90422CBF12
:100CD000D8176FEAE37040F0010070474FEA410C0B
:100CE0007FEA6C5C02D150EA013C07D14FEA430C29
:100CF0007FEA6C5CD6D152EA033CD3D05DF8040B9A
:100D0000704700BF8446104662468C4619466346CB
:100D100000E000BF01B5FFF7B7FF002848BF10F1A2
:100D2000000F01BD4DF808EDFFF7F4FF0CBF0120E7
:100D300000205DF808FB00BF4DF808EDFFF7EAFF63
:100D400034BF012000205DF808FB00BF4DF808ED1E
:100D5000FFF7E0FF94BF012000205DF808FB00BF13
:100D60004DF808EDFFF7CEFF94BF012000205DF89D
:100D700008FB00BF4DF808EDFFF7C4FF34BF0120AA
:100D800000205DF808FB00BF4FEA410C7FEA6C5C75
:100D900002D150EA013C0AD14FEA430C7FEA6C5C75
:100DA00002D152EA033C02D14FF0000070474FF0ED
:100DB000010070474FEA410212F5001215D211D519
:100DC0006FF47873B3EB625212D94FEAC12343F048
:100DD000004343EA505311F0004F23FA02F018BFCA
:100DE000404270474FF00000704750EA013005D193
:100DF00011F0004008BF6FF0004070474FF0000056
:100E0000704700BF10B5054C237833B9044B13B1BC
:100E10000448AFF300800123237010BDB8090020FF
:100E2000000000000497000808B5034B1BB10349FC
:100E30000348AFF3008008BD00000000BC0900209B
:100E400004970008F0B589B0002403940494059435
:100E500006940794254BDA6C42F00402DA64DA6CEB
:100E600002F004020092009ADA6C42F00102DA64A5
:100E7000DA6C02F001020192019ADA6C42F002028D
:100E8000DA64DB6C03F002030293029B184D2246E6
:100E90000821284601F0CCF9202703974FF4881643
:100EA00004960223059303A94FF0904001F0E4F863
:100EB000802303930496059403A94FF0904001F01A
:100EC000DBF808230393012604960594069403A9EE
:100ED000284601F0D1F8039704960594069403A9D7
:100EE000284601F0C9F809B0F0BD00BF001002406B
:100EF0000004004800B583B08DF807004FF47A7302
:100F000001220DF10701034802F0E5FA012003B0C8
:100F10005DF804FBD409002072B6FEE708B50B4863
:100F20000B4B03604FF41653436000238360C36090
:100F300003610C2242618361C3610362436202F078
:100F40006EFB00B908BDFFF7E7FF00BFD409002022
:100F50000044004000B587B0002300930193029342
:100F60000393049305931848184A02604360836012
:100F7000C360036104224261037643760122C261A9
:100F800080F820308362C36280F83030436380F899
:100F9000383000F04FFB90B90D4B009306230193BE
:100FA000002302937F220392042204920593694650
:100FB000054800F031FC20B907B05DF804FBFFF7ED
:100FC000ABFFFFF7A9FF00BFF00A002000000450AC
:100FD0000008302E00B58BB02422002101A802F0B9
:100FE000E5FC0C480C4B036000F052FF68B900228E
:100FF0000192029203920492059201A9054800F021
:10100000A0FF20B90BB05DF804FBFFF785FFFFF7E9
:1010100083FF00BFDC0A00200074004008B50B48C5
:101020000B4B03604FF41653436000238360C3608F
:1010300003610C2242618361C3610362436202F077
:10104000EEFA00B908BDFFF767FF00BF580A00209D
:101050000038014000B597B04422002105A802F0F5
:10106000A5FC0023009301930293039304934FF490
:10107000007001F0F3F8002830D101F0DFF81A4ACF
:10108000D2F8903023F01803C2F89030142305935F
:10109000012307930B9300220C9260220D920222EF
:1010A0000F921093119320231293072313931492FA
:1010B000159205A801F0BCF990B90F230093032104
:1010C00001910023029303930493684601F0E6FC28
:1010D00040B901F0FBFF17B05DF804FBFFF71CFF00
:1010E000FFF71AFFFFF718FF0010024010B588B095
:1010F00000F03EFAFFF7AEFFFFF7A4FEFFF70EFF8A
:10110000FFF728FFFFF766FFFFF788FF12480190FF
:10111000124C029401238DF80130C823ADF8103031
:1011200040F6C413ADF812302023ADF81C300C4B40
:101130000693002100F0BEFE204600F0F9FDBDF848
:101140001610084802F084FC642000F033FA684668
:1011500000F0B1F9F3E700BFDC0A0020F00A00203C
:10116000000400482097000882B00A4B1A6E42F033
:1011700001021A661A6E02F001020092009A9A6D3C
:1011800042F080529A659B6D03F080530193019B5E
:1011900002B070470010024010B59CB00446002118
:1011A0001791189119911A911B91542202A802F0DB
:1011B000FDFB22681E4B9A4201D01CB010BD4FF4BB
:1011C000804302934FF080531493012303930493BD
:1011D00010230593072306930223079308934FF0E8
:1011E0008073099302A801F0FDFDF0B9114BDA6C90
:1011F00042F40052DA64DA6C02F400520092009A6F
:10120000DA6C42F00102DA64DB6C03F00103019353
:10121000019B402317930B2318930023199317A9BD
:101220004FF0904000F028FFC7E7FFF775FEDDE7BD
:10123000000004500010024000B589B00023039361
:1012400004930593069307930268124B9A4202D0C7
:1012500009B05DF804FB03F5CE339A6D42F00052FD
:101260009A659A6D02F000520192019ADA6C42F08E
:101270000102DA64DB6C03F001030293029B10238A
:1012800003930323049303A94FF0904000F0F4FE6E
:10129000DEE700BF0074004070B59EB00446002138
:1012A00019911A911B911C911D91542204A802F0CE
:1012B0007DFB2368364A934204D0364A93422ED0AF
:1012C0001EB070BD0123049304A801F08BFD18BB70
:1012D000314B1A6E42F480421A661A6E02F4804252
:1012E0000092009ADA6C42F00102DA64DB6C03F0DF
:1012F00001030193019B4FF4C063199302231A93D6
:1013000000231B9303231C9307231D9319A94FF05C
:10131000904000F0B1FED3E7FFF7FEFDD8E70223CF
:10132000049304A801F05EFD00282ED11A4B9A6D9B
:1013300042F400329A659A6D02F400320292029AE7
:10134000DA6C42F00102DA64DB6C03F00103039310
:10135000039B0423199302261A9600251B95032448
:101360001C9407231D9319A94FF0904000F084FEB0
:101370004FF4004319931A961B951C941D9419A9B8
:101380004FF0904000F078FE9AE7FFF7C5FDCDE7FB
:10139000003801400044004000100240FEE7FEE734
:1013A000FEE7FEE7FEE770477047704708B500F0BC
:1013B000EFF808BD0120704708B502F0B7FA162310
:1013C00003604FF0FF3008BD08B54FF0FF31FFF765
:1013D000F3FFFEE770B50C461646002506E0AFF3B6
:1013E0000080214601F8010B01350C46B542F6DBC1
:1013F000304670BD70B50C461646002504E014F862
:10140000010BFFF777FD0135B542F8DB304670BDC3
:101410004FF0FF3070474FF400534B60002070478F
:10142000012070470020704710B503460C4A0D4953
:101430000D48006840B10C4800680344521A9342BA
:1014400006D8094A136010BD0748084C0460F2E74B
:1014500002F06CFA0C2303604FF0FF30F3E700BF9B
:101460000000012000040000540B0020A80B002005
:10147000704710B50446806800F05AFCA06800F080
:10148000C7F9E08210BD10B50446838A00221146D8
:10149000406800F040FDA38AB3F5967F05D900228D
:1014A000A18BA06900F0C4FE10BD0122A18BA06930
:1014B00000F0BEFEF8E710B50446FFF7DAFFE38A56
:1014C000A3822046FFF7DFFF10BD0000DFF834D015
:1014D000FFF7CEFF0C480D490D4A002302E0D45817
:1014E000C4500433C4188C42F9D30A4A0A4C00236E
:1014F00001E013600432A242FBD302F033FAFFF79B
:10150000F5FDFEE70000012000000020B8090020E2
:10151000249B0008B8090020A40B0020FEE700006F
:10152000104B1B780BB90120704710B504464FF4DF
:101530007A70B0FBF3F30C4A1068B0FBF3F000F0E4
:1015400093FC68B90F2C01D901200AE00022214642
:101550004FF0FF3000F078FC044B1C60002000E0EE
:10156000012010BD04000020000000200800002021
:1015700010B5032000F056FC0020FFF7D1FF10B19A
:101580000124204610BD0446FFF7EEFDF9E70000F8
:10159000034B1B78034A11680B441360704700BF6C
:1015A00004000020580B0020014B1868704700BF52
:1015B000580B002038B50446FFF7F6FF0546B4F196
:1015C000FF3F02D0044B1B781C44FFF7EDFF401B8C
:1015D000A042FAD338BD00BF0400002010B4303060
:1015E0000B0A9B0003F00C03C45801F01F014FF0DD
:1015F0001F0C0CFA01FC24EA0C0CC2F384628A4032
:101600004CEA0202C25010BC704710B414304B0EAA
:101610009B0003F00403C458C1F304514FF0070CBE
:101620000CFA01FC24EA0C0C8A404CEA0202C2507B
:1016300010BC704730B583B000230193002800F040
:10164000DA800446436D13B323689A6812F0005F92
:1016500005D09A6822F0204222F03F029A60226868
:10166000936813F0805F1FD1936823F0104323F039
:101670003F0343F080539360604B1B689B09604AB3
:10168000A2FB03239B0901335B00019309E0FFF7F1
:1016900083FD0023A36584F85030D5E7019B013B0F
:1016A0000193019B002BF9D12268936813F0805FAE
:1016B00078D1636D43F010036365A36D43F00103BC
:1016C000A3650120936813F0040300D00123616D2A
:1016D00011F0100F40F08880002B40F08580636D82
:1016E00023F4817343F002036365936813F0010FE1
:1016F0000BD1444B9B6813F0010F06D1636842493C
:101700008A6822F47C1213438B60627E636B43EA27
:101710004233E2681343A268134394F8202043EA5B
:101720000243012A40D0A26A22B102F47072E16A37
:101730000A4313432168CD68344A2A401A43CA60D9
:1017400021688B6813F0040300D001238A6812F02B
:10175000080200D00122B3B9AAB9237E94F8302040
:10176000520042EA8332CB6823F4804323F0020321
:101770001343CB6094F83830012B1AD022681369D8
:1017800023F0010313612369012B24D02268136B1A
:1017900023F00F031363636D23F0030343F001038E
:1017A000636526E000208DE7626A013A43EA42431E
:1017B000B9E721680B6923F4FF6323F00403E26BAC
:1017C000256C2A43656C2A43A56C2A43134343F0D6
:1017D00001030B61D7E721680B6B23F00F03E2696C
:1017E000013A13430B63D6E7636D43F0100363655F
:1017F000012003B030BD0120FBE700BF0000002046
:10180000632D3E05000004500003045007C0F0FFA4
:101810000368186C70470000F0B583B00023019393
:1018200090F85030012B00F00A8204460D46012347
:1018300080F8503003689B6813F0040F09D0436DA3
:1018400043F0200343650120002384F8503003B0A7
:10185000F0BD4B68052B08D8023B032B56D8DFE8B8
:1018600003F0024B4E510C234B602A6869682068D4
:10187000FFF7B4FE2068836813F0040300D001234F
:10188000826812F0080200D001220BB9002A40D071
:101890002268936813F0010F17D12B68E868D2F81B
:1018A000B010C3F3120621EA060100F0180CAA4892
:1018B00020FA0CF00340C3F312030B43C2F8B0301C
:1018C000EA68A64B9A4200F0A9802B68A44A13420A
:1018D00000F0B181A34A926802F0E070A2498B4205
:1018E00000F05B81A1498B4200F07E81A0498B42D0
:1018F00000F08E810020A7E712234B60B5E7182384
:101900004B60B2E74FF480734B60AEE706234B6049
:10191000ABE7AA682968FFF778FE69692268D3688F
:10192000C3F3C1035B009940286904280ED02E68D8
:10193000603252F820708F4B3B4006F0F84631433E
:101940000B4343F0004342F82030A1E7136E116EC1
:10195000C1F384612B68C3F3120080BBC3F38463BB
:10196000994234D021684B6E4A6EC2F384622B6870
:10197000C3F3120080BBC3F384639A4234D021685E
:101980008B6E8A6EC2F384622B68C3F3120080BB35
:10199000C3F384639A4234D02168CB6ECA6EC2F31B
:1019A00084622B68C3F3120080BBC3F384639A4242
:1019B0007FF46EAFCB6E23F00043CB6668E793FAFB
:1019C000A3F313B1B3FA83F3CAE72023C8E7136E76
:1019D00023F000431366C5E793FAA3F313B1B3FAF8
:1019E00083F3CAE72023C8E74B6E23F000434B661E
:1019F000C5E793FAA3F313B1B3FA83F3CAE720233D
:101A0000C8E78B6E23F000438B66C5E793FAA3F318
:101A100013B1B3FA83F3CAE72023C8E720682B6821
:101A2000C3F312063EBB9A0E013202F01F02092ACE
:101A30008CBF00220122002A55D05EBB990E0131D5
:101A4000890601F0F8418EBB4FEA936C0CF1010C52
:101A50000CF01F0C012202FA0CF21143AEBB9B0EDC
:101A6000013303F01F0303EB43031B051943AA686B
:101A7000FFF7CBFD29E793FAA3F24AB1B2FA82F25B
:101A8000013202F01F02092A8CBF00220122D2E794
:101A90002022F5E793FAA3F131B1B1FA81F10131D6
:101AA000890601F0F841CEE72021F8E793FAA3F286
:101AB0004AB1B2FA82F2013202F01F024FF0010C79
:101AC0000CFA02F2C9E72022F5E793FAA3F343B137
:101AD000B3FA83F3013303F01F0303EB43031B0546
:101AE000C4E72023F6E7E6B9990E0131890601F033
:101AF000F84116BB4FEA936C0CF1010C0CF01F0C73
:101B0000012202FA0CF21143B6BB9B0E013303F023
:101B10001F0303EB43031E3B1B0543F000731943F4
:101B2000A5E793FAA3F131B1B1FA81F10131890648
:101B300001F0F841DDE72021F8E793FAA3F24AB17A
:101B4000B2FA82F2013202F01F024FF0010C0CFADD
:101B500002F2D8E72022F5E7FFFF070000007F40F0
:101B60000000088000030450000052C7000084CB2E
:101B70000100008000F0FF0393FAA3F35BB1B3FA16
:101B800083F3013303F01F0303EB43031E3B1B05E9
:101B900043F00073C3E72023F3E712F4000F7FF450
:101BA000A1AE2268274B9A4201D000204CE640F4B7
:101BB000000325498A6822F0E07213438B60234BAF
:101BC0001B689B09224AA2FB03239B09013303EBF9
:101BD00043039B00019302E0019B013B0193019BA6
:101BE000002BF9D100202FE612F0807F7FF47EAE2B
:101BF0002268144B9A4201D0002025E640F0807301
:101C000011498A6822F0E07213438B6000201BE6C2
:101C100012F4800F11D122680A4B9A4201D00020A1
:101C200012E640F4800308498A6822F0E072134308
:101C30008B60002008E6002006E6002004E6022073
:101C400005E600BF0000045000030450000000201F
:101C5000632D3E0530B583B00023019303689A6875
:101C600012F0010F58D1044699682D4A114219D13A
:101C70009A6822F0004222F03F0242F001029A608C
:101C8000284B9B6813F4000F1CD0274B1B689B0943
:101C9000264AA2FB03239B09013303EB43039B006A
:101CA00001930CE0436D43F010034365836D43F0F3
:101CB00001038365012030E0019B013B0193019BFF
:101CC000002BF9D1FFF770FC054623681A6812F063
:101CD000010F1FD19A6812F0010F07D19A6822F004
:101CE000004222F03F0242F001029A60FFF75CFCE2
:101CF000431B022BE9D923681B6813F0010FE4D1C1
:101D0000636D43F010036365A36D43F00103A365A6
:101D1000012002E0002000E0002003B030BD00BF41
:101D20003F0000800003045000000020632D3E05AA
:101D300003689B6813F0040F3CD110B5044690F87B
:101D40005030012B38D0012380F85030FFF782FF4C
:101D500060BB636D23F4706323F0010343F480736D
:101D60006365636D13F4805F1DD0A36D23F00603DC
:101D7000A36523681C221A60002384F8503022686F
:101D8000D36813F0007F05D0636D23F4405343F410
:101D900080536365936823F0004323F03F0343F0CF
:101DA0000403936010BD0023A365E2E7002384F8D9
:101DB0005030F7E7022070470220F3E7002808DBE5
:101DC0000901C9B200F1604000F5614080F80013DC
:101DD000704700F00F000901C9B2014B1954704758
:101DE00014ED00E000B500F00700C0F1070CBCF1F5
:101DF000040F28BF4FF0040C031D062B0FD9C31E80
:101E00004FF0FF3E0EFA0CF021EA000199400EFA65
:101E100003FE22EA0E0241EA02005DF804FB002301
:101E2000EEE70000074AD36823F4E0631B041B0CB1
:101E3000000200F4E060034343F0BF6343F4003367
:101E4000D360704700ED00E010B50446054BD8683C
:101E5000C0F30220FFF7C6FF01462046FFF7AEFFA2
:101E600010BD00BF00ED00E00138B0F1807F0BD263
:101E70004FF0E0235861054AF02182F8231000203A
:101E8000986107221A6170470120704700ED00E059
:101E900070B110B50446037933B1022323710020D9
:101EA00020610123237110BD4371FFF7C5F9F4E7E9
:101EB000012070474279012A2BD010B40346012239
:101EC0004271022018711C68206801F0100C02FA9F
:101ED0000CF20243226081B919680A6802F03C02E0
:101EE000042A05D001221A710020587110BC7047D5
:101EF0004A6842F001024A60F4E719680A6802F48D
:101F00007012B2F5802FEDD14A6842F002024A60A9
:101F1000E8E70220704710B483B000240194006801
:101F2000019049B901990A4408320192019A13605B
:101F3000002003B010BC704701990A44143201928A
:101F4000F4E7F8B54379012B00F0948004460D4680
:101F5000164601234371022303710B68042B32D010
:101F60002B69012B79D02068C16B06F01002072382
:101F7000934021EA03012B68AE683343EE68334394
:101F800093400B43C363206803684FF48041914042
:101F900023EA010303602068016840F6FC73934064
:101FA00021EA03016B6893400B43036020680368D8
:101FB000C02101FA02F223EA020303600123237124
:101FC00000206071F8BDFFF7EFFA07467EB1236885
:101FD0005B6B002B3ADAFFF7E7FAC01B0128F6D952
:101FE000236943F00803236103202071EAE7236893
:101FF0005B6B13F4004F0BD0FFF7D6FAC01B012820
:10200000F5D9236943F00803236103202071D9E740
:102010000120FFF7CFFA2368AA691A642068836C4D
:1020200006F0100240F2FF31914023EA0103E96912
:1020300091400B4383642068C36CFF21914023EAE5
:102040000103296A91400B43C36489E70120FFF72C
:10205000B1FA2368AA695A64E0E721688A6B06F03E
:1020600010001F23834022EA03026B69834013435D
:102070008B6378E70220A5E770B582B0002365E0A6
:1020800085685E000324B44025EA0405CC68B440AA
:102090002C438460456825EA0C054C68C4F30014A1
:1020A0009C402C43446062E0DD08083550F8254030
:1020B00003F0070C4FEA8C0C4FF00F0E0EFA0CFEDB
:1020C00024EA0E0E0C6904FA0CF444EA0E0440F8FB
:1020D000254063E0022400E0002404FA0EF42C43BF
:1020E0000CF1020C4E4D45F82C404E4CA568D443E3
:1020F00025EA0206D1F804C01CF4801F01D042EA90
:102100000506484DAE60ED6804EA0506D1F804C046
:102110001CF4001F01D042EA0506424DEE606D68D6
:1021200004EA0506D1F804C01CF4003F01D042EADD
:1021300005063C4D6E602D682C404E6816F4803FBD
:1021400001D042EA0504374A146001330A6832FAC2
:1021500003F462D04FF0010C0CFA03FC1CEA0202FB
:10216000F3D04C6804F00304013C012C88D94C687E
:1021700004F00304032C0CD0C4685D004FF0030C82
:102180000CFA05FC24EA0C0C8C68AC4044EA0C0404
:10219000C4604C6804F00304022C85D004684FEA44
:1021A000430E4FF0030C0CFA0EFC24EA0C0C4C68A6
:1021B00004F0030404FA0EF444EA0C0404604C68CE
:1021C00014F4403FC1D0184C256E45F0010525663A
:1021D000246E04F001040194019C4FEA930C0CF16D
:1021E00002050F4C54F8255003F0030E4FEA8E0EF3
:1021F0000F2404FA0EF425EA0405B0F1904F3FF4E1
:102200006BAF0A4CA04206D004F58064A0423FF4B4
:1022100061AF072461E701245FE702B070BD00BF32
:10222000000001400004014000100240000400488A
:102230000AB181617047816270470000024A1368E9
:1022400043F480731360704700700040024B1868BD
:1022500000F4C060704700BF00700040B0F5007F20
:102260000FD01F4B1B6803F4C063B3F5806F34D0ED
:102270001B4A136823F4C06343F480631360002097
:102280007047174B1B6803F4C063B3F5007F20D081
:10229000134A136823F4C06343F400731360114BB3
:1022A0001B68322202FB03F30F4AA2FB03239B0CA1
:1022B000013300E0013B0A4A526912F4806F01D0F9
:1022C000002BF7D1064B5B6913F4806F03D100201C
:1022D000704700207047032070470020704700BF00
:1022E000007000400000002083DE1B4330B583B047
:1022F0000446204B9B6D13F0805F0BD0FFF7A6FFC9
:10230000B0F5007F17D0802C1FD82DD0702C2DD089
:1023100000211BE0174DAB6D43F08053AB65AB6DF7
:1023200003F080530193019BFFF790FFAB6D23F007
:102330008053AB65E4E7802C03D9A02C03D902219C
:1023400004E0002102E0012100E003210A4A1368B1
:1023500023F007030B431360136803F007038B425A
:1023600006D1002003B030BD0221EFE70121EDE7E7
:102370000120F7E70010024000200240284A93683D
:10238000D26802F0030213F00C030AD00C2B06D023
:10239000042B1FD0082B20D00020024610E0012A79
:1023A000F6D11F4A126812F0080F0CD11C4AD2F85D
:1023B0009420C2F303221B4951F8222043B100208C
:1023C0000C2B0DD07047164A1268C2F30312F2E7C5
:1023D0001046F5E714480022F2E714480022EFE720
:1023E0000F4BDB6803F00303022B16D0032B00D145
:1023F0000E4A0B49CB68C3F302130133C868C0F31C
:10240000062002FB00F0B0FBF3F0CB68C3F341639E
:1024100001335B00B0FBF3F0D4E7034AE9E700BF08
:1024200000100240389700080024F40000127A00DF
:10243000002800F01C83F0B583B00446964B9D68DD
:1024400005F00C05DE6806F00306036813F0100FB4
:102450005AD0E5B10C2D18D0A369002B00F0BB8039
:102460008D4A136843F001031360FFF79DF8074698
:10247000894B1B6813F0020F40F09A80FFF794F825
:10248000C01B0228F4D90320FCE2012EE4D1824BC8
:102490001B6813F0020F03D0A369002B00F0E98240
:1024A000206A7D4B1B6813F0080F5BD07A4B1B68CA
:1024B00003F0F00398425CD8774B1A6842F00802A8
:1024C0001A601A6822F0F002216A0A431A605A68F8
:1024D00022F47F42E16942EA01225A60002D60D075
:1024E000FFF74CFF6C4B9B68C3F303136B4AD35C41
:1024F00003F01F03D8406A4B18606A4B1868FFF757
:102500000FF8002840F0BE82236813F0010F00F09E
:102510008180082D75D00C2D71D06368B3F5803F94
:1025200000F09780B3F5A02F00F099805A4B1A68FD
:1025300022F480321A601A6822F480221A606368DA
:10254000002B00F09980FFF72FF80746524B1B68CD
:1025500013F4003F5ED1FFF727F8C01B6428F5D9BC
:1025600003208FE24C4BD3F894301B0903F0F003A7
:10257000A0E7FFF7BBFE002840F07D82464B1A68BB
:1025800042F008021A601A6822F0F002216A0A4337
:102590001A605A6822F47F42E16942EA01225A60D5
:1025A0009EE7206AFFF7A2FE002899D0012069E289
:1025B000394B1A6842F008021A601A6822F0F002D9
:1025C000216A0A431A605A6822F47F42E16942EAAA
:1025D00001225A6098E7304A136823F00103136020
:1025E000FEF7E2FF07462C4B1B6813F0020F8BD05F
:1025F000FEF7DAFFC01B0228F5D9032042E2032EC2
:102600008BD1254B1B6813F4003F03D06368002B6C
:1026100000F03382236813F0020F58D0042D45D008
:102620000C2D41D0E368002B77D01B4A136843F48C
:1026300080731360FEF7B8FF0646174B1B6813F450
:10264000806F61D1FEF7B0FF801B0228F5D903200F
:1026500018E2114A136843F4803313606FE703F103
:102660008043A3F53C331A6842F480221A601A684A
:1026700042F480321A6062E7FEF796FF0746064B87
:102680001B6813F4003FC5D0FEF78EFFC01B642803
:10269000F5D90320F6E100BF001002407097000852
:1026A0000000002008000020022EBBD1A44B1B68B4
:1026B00013F4806F03D0E368002B00F0E081A04AA0
:1026C000536823F0F853216943EA01635360236898
:1026D00013F0080F4CD063699BB3994AD2F8943039
:1026E00043F00103C2F89430FEF75EFF0646944BB8
:1026F000D3F8943013F0020F3AD1FEF755FF801B48
:102700000228F4D90320BDE18D4A536823F0F85321
:10271000216943EA01635360D9E7894A136823F4C6
:1027200080731360FEF740FF0646854B1B6813F469
:10273000806FCCD0FEF738FF801B0228F5D903202C
:10274000A0E17F4AD2F8943023F00103C2F894301C
:10275000FEF72AFF06467A4BD3F8943013F0020FA7
:1027600006D0FEF721FF801B0228F4D9032089E15F
:10277000236813F0040F7AD0714B9B6D13F0805FC8
:1027800036D16F4B9A6D42F080529A659B6D03F083
:1027900080530193019B01266A4B1B6813F4807FD1
:1027A00028D0A368012B39D0052B3FD0644BD3F838
:1027B000902022F00102C3F89020D3F8902022F05C
:1027C0000402C3F89020A368002B3DD0FEF7ECFE76
:1027D00007465B4BD3F8903013F0020F46D1FEF75B
:1027E000E3FEC01B41F288339842F2D9032049E14D
:1027F0000026D1E7534A136843F480731360FEF751
:10280000D3FE07464F4B1B6813F4807FC9D1FEF7F8
:10281000CBFEC01B0228F5D9032033E1484AD2F889
:10282000903043F00103C2F89030CCE7444BD3F82A
:10283000902042F00402C3F89020D3F8902042F098
:102840000102C3F89020BEE7FEF7AEFE07463C4B00
:10285000D3F8903013F0020F08D0FEF7A5FEC01B8E
:1028600041F288339842F2D903200BE1E6B923689C
:1028700013F0200F35D0636AE3B1314AD2F89830B3
:1028800043F00103C2F89830FEF78EFE06462C4B4B
:10289000D3F8983013F0020F23D1FEF785FE801B8A
:1028A0000228F4D90320EDE0254A936D23F08053EC
:1028B0009365DCE7224AD2F8983023F00103C2F88E
:1028C0009830FEF771FE06461D4BD3F8983013F092
:1028D000020F06D0FEF768FE801B0228F4D9032001
:1028E000D0E0A36A002B00F0CC80022B17D00C2D77
:1028F00000F0CC80124A136823F080731360FEF757
:1029000053FE04460E4B1B6813F0007F00F0A880B6
:10291000FEF74AFE001B0228F4D90320B2E0084B60
:10292000DB6803F00301E26A91420DD00C2D00F048
:10293000AB80034B1B6813F0806F2FD00120A1E008
:10294000001002400070004003F07002216B01395A
:10295000B2EB011FEAD103F4FE42616BB2EB012F2F
:10296000E4D103F07842A16BB2EBC16FDED103F486
:10297000C001E26B5208013AB1EB425FD6D103F0DD
:10298000C063226C5208013AB3EB426FCED1404B88
:102990001B6813F0007F49D0002073E03C4A1368A5
:1029A00023F080731360FEF7FFFD0546384B1B686C
:1029B00013F0007F06D0FEF7F7FD401B0228F5D983
:1029C00003205FE0324AD36832491940E36A206B42
:1029D000013843EA0013606B43EA0023E06B4008D0
:1029E000013843EA4053206C4008013843EA406311
:1029F000A06B43EAC0631943D160136843F080734E
:102A00001360D36843F08073D360FEF7CDFD0446B6
:102A10001F4B1B6813F0007F06D1FEF7C5FD001B9E
:102A20000228F5D903202DE000202BE0184B1A686E
:102A300042F080721A60DA6842F08072DA60FEF763
:102A4000B3FD0446124B1B6813F0007F06D1FEF75E
:102A5000ABFD031B022BF5D9032013E0002011E08E
:102A60000B4AD1680C4B0B40D36000200AE00120D8
:102A70007047012006E0012004E0012002E001206F
:102A800000E0002003B0F0BD0120FBE70120F9E7E2
:102A9000001002408C809D01FCFFEEFE002800F03B
:102AA000AF8070B50D460446594B1B6803F0070311
:102AB0008B420BD2564A136823F007030B43136073
:102AC000136803F007038B4240F09C80236813F0E7
:102AD000020F0CD0A2684F4B9B6803F0F0039A42A0
:102AE00005D94C498B6823F0F0031A438A602368A8
:102AF00013F0010F39D06368032B09D0022B26D0C5
:102B000063BB444A126812F0020F06D1012076E03E
:102B1000404A126812F0007F76D03E498A6822F05F
:102B2000030213438B60FEF73FFD0646394B9B685B
:102B300003F00C036268B3EB820F16D0FEF734FD8E
:102B4000801B41F288339842F0D9032057E0314A84
:102B5000126812F4003FE0D1012050E02D4A1268C3
:102B600012F4806FD9D1012049E0236813F0020FDD
:102B70000CD0A268274B9B6803F0F0039A4205D261
:102B800024498B6823F0F0031A438A60204B1B68AA
:102B900003F00703AB420AD91D4A136823F0070369
:102BA0002B431360136803F00703AB422ED1236855
:102BB00013F0040F06D0174A936823F4E063E1682A
:102BC0000B439360236813F0080F07D0114A9368F2
:102BD00023F46053216943EAC1039360FFF7CEFBFE
:102BE0000C4B9B68C3F303130B4AD35C03F01F0326
:102BF000D8400A4B18600A4B1868FEF791FC70BD6C
:102C0000012070470120FAE70120F8E70120F6E7EC
:102C100000200240001002407097000800000020D1
:102C200008000020014B1868704700BF000000201A
:102C300008B5FFF7F7FF054B9B68C3F30223044A6F
:102C4000D35C03F01F03D84008BD00BF0010024052
:102C50006897000808B5FFF7E5FF054B9B68C3F3CD
:102C6000C223044AD35C03F01F03D84008BD00BF51
:102C70000010024068970008F8B504460D46584B0E
:102C8000DB6813F0030F17D0554BDB6803F0030329
:102C90000268934201D0012616E0002A00F09E80CF
:102CA0004F4BDB68C3F3021301334268934201D0F8
:102CB000012609E000261BE00368022B57D0032BF6
:102CC0005CD0012B02D001263046F8BD444A126880
:102CD00012F0020F5ED04248C26822F073026168AF
:102CE000013943EA01131343C3600026002EEBD1E0
:102CF0003B4A136823F080631360FEF755FC0746D8
:102D0000374B1B6813F0006F05D0FEF74DFCC31B5B
:102D1000022BF5D90326002ED6D1002D3CD1304907
:102D20000B6923F0784323F4FE43A068E268D206DF
:102D300042EA002213430B61294A136843F080637F
:102D40001360FEF731FC0546254B1B6813F0006F3E
:102D500005D1FEF729FC401B0228F5D90326002ED9
:102D6000B2D11F4A1369A1690B431361ACE71C4A36
:102D7000126812F4806FAED10126A5E7184A1268D6
:102D800012F4003FA7D1164A126812F4802FA2D184
:102D9000012699E70126A9E7012D0FD01048026905
:102DA00022F0C06222F4FE42A16863695B08013B25
:102DB0005B0643EA01231A430261BDE70848026942
:102DC00022F4C00222F4FE42A16823695B08013BA1
:102DD0005B0543EA01231A430261ADE7012673E76D
:102DE000001002402DE9F04182B00446036813F45C
:102DF000006F25D0C36BB3F5000F06D0B3F5400FBD
:102E000012D04BB1012637461CE0AE4AD36843F4DA
:102E10008033D360002708E000210430FFF72CFF47
:102E2000074610B106460DE00027A64AD2F88830C2
:102E300023F44003E16B0B43C2F88830002601E025
:102E400000263746236813F4003F6BD09D4B9B6DE3
:102E500013F0805F4CD19B4B9A6D42F080529A6583
:102E60009B6D03F080530193019B4FF00108964A3C
:102E7000136843F480731360FEF796FB0546924B8C
:102E80001B6813F4807F05D1FEF78EFB401B0228E0
:102E9000F5D90327002F40D18A4BD3F8903013F493
:102EA000407315D0226D9A4212D0864AD2F89030E3
:102EB00023F44073D2F8901041F48031C2F890109E
:102EC000D2F8901021F48031C2F89010C2F89030FE
:102ED00013F0010F0FD1002F40F0C980794AD2F8CA
:102EE000903023F44073216D0B43C2F8903015E00D
:102EF0004FF00008BBE7FEF757FB0546714BD3F8D0
:102F0000903013F0020FE6D1FEF74EFB401B41F26A
:102F100088339842F2D90327DDE73E46B8F1000F27
:102F200040F0A780236813F0010F08D0654AD2F85B
:102F3000883023F00303216A0B43C2F888302368EA
:102F400013F0020F08D05F4AD2F8883023F00C0348
:102F5000616A0B43C2F88830236813F0200F08D051
:102F6000584AD2F8883023F44063A16A0B43C2F870
:102F70008830236813F4007F08D0524AD2F8883092
:102F800023F44023616B0B43C2F88830236813F4A9
:102F9000806F08D04B4AD2F8883023F44013A16BDD
:102FA0000B43C2F88830236813F0400F08D0454A1D
:102FB000D2F8883023F44053E16A0B43C2F88830DA
:102FC000236813F4807F08D03E4AD2F8883023F477
:102FD0004033216B0B43C2F88830236813F4005F41
:102FE0000FD0384AD2F8883023F04063216C0B436D
:102FF000C2F88830236CB3F1006F40D0B3F1806F1A
:1030000042D0236813F4802F0FD02E4AD2F8883094
:1030100023F04063616C0B43C2F88830636CB3F1FA
:10302000006F39D0B3F1806F3BD0236813F4804F29
:103030000CD0244AD2F8883023F04053A16C0B43C3
:10304000C2F88830A36CB3F1805F32D0236813F4E8
:10305000004F08D01B4AD2F8883023F08043E16C3F
:103060000B43C2F88830304602B0BDE8F0813E46DE
:1030700054E7144A936D23F08053936552E7D36865
:1030800043F48013D360BCE70121201DFFF7F4FD5A
:103090000028B6D00646B4E7D36843F48013D36063
:1030A000C3E70121201DFFF7E7FD0028BDD006463C
:1030B000BBE70221201DFFF7DFFD0028C6D0064632
:1030C000C4E700BF0010024000700040024A1368CD
:1030D00043F00403136070470010024010B504462B
:1030E000016883680269134342691343C269134349
:1030F00008688C4A02401A430A602268536823F425
:103100004053E1680B435360A1692268864B9A42A1
:1031100001D0236A1943936823F430630B4393600F
:103120002368824A93421CD0814A93422DD07E4A22
:10313000934243D010227C498B4260D0E069B0F5C5
:10314000004F00F08C80082A00F2E580DFE812F0E2
:10315000B400CA00B200E300CD00E300E300E300E6
:10316000D00002F55842D2F8882002F00302032A68
:1031700009D8DFE802F0020438060122DBE7042266
:10318000D9E70822D7E71022D5E702F5E632D2F8D0
:10319000882002F00C020C2A0ED8DFE802F0070D9E
:1031A0000D0D090D0D0D260D0D0D0B000022C2E7B2
:1031B0000422C0E70822BEE71022BCE702F5C832AD
:1031C000D2F8882002F44062B2F5006F0FD005D823
:1031D0007AB1B2F5806F0ED10422ACE7B2F5406F40
:1031E0000BD10822A7E70222A5E70222A3E70222C9
:1031F000A1E700229FE710229DE710229BE7082A03
:1032000079D8DFE802F008782A78277878780500FE
:103210004FF4004003E0FFF70BFD00286DD062681B
:1032200002EB420383426AD8B0EB023F69D8010E39
:1032300000025308C0184FF0000341F10001FCF7F1
:10324000BFFFA0F540723B4B9A425CD82368D86020
:10325000002043E0FFF792F8DFE73748DFE7082A6E
:1032600053D8DFE802F007210552245252520B00D6
:10327000314803E0FFF7DCFC002848D062685308BF
:1032800003EB4003B3FBF2F3A3F110014FF6EF722F
:1032900091423ED89AB222F00F02C3F34203134385
:1032A0002268D360002019E0FFF7D4FCE4E7FFF7C1
:1032B00065F8E1E7204802E0FFF7BAFC68B363680D
:1032C00000EB5300B0FBF3F0A0F110024FF6EF73E8
:1032D0009A4224D8236880B2D86000200023636615
:1032E000A36610BDFFF7B6FCE8E7FFF747F8E5E790
:1032F0004FF40040E3E70120F0E70020EEE7012073
:10330000ECE70120EAE70120E8E70120E6E70020FA
:10331000E4E70120E2E70120E0E70020DEE701200A
:10332000DCE700BFF369FFEF008000400038014098
:1033300000440040FFFC0F000024F400436A13F037
:10334000010F06D00268536823F40033816A0B43EF
:103350005360436A13F0020F06D00268536823F4E7
:103360008033C16A0B435360436A13F0040F06D0E5
:103370000268536823F48023016B0B435360436A54
:1033800013F0080F06D00268536823F40043416B22
:103390000B435360436A13F0100F06D00268936822
:1033A00023F48053816B0B439360436A13F0200F27
:1033B00006D00268936823F40053C16B0B439360FB
:1033C000436A13F0400F0AD00268536823F4801355
:1033D000016C0B435360036CB3F5801F0BD0436A41
:1033E00013F0800F06D00268536823F40023816C29
:1033F0000B43536070470268536823F4C003416C69
:103400000B435360EBE72DE9F84305460F4616469C
:103410009946DDF820802B68DC6937EA04040CBF8C
:1034200001240024B44253D1B8F1FF3FF3D0FEF79A
:10343000BBF8A0EB090040452DD8B8F1000F2AD009
:103440002B681A6812F0040FE5D0DA6912F4006FE5
:10345000E1D04FF400621A622A6852E8003F23F478
:10346000D07342E800310029F6D12A6802F108033E
:1034700053E8003F23F00103083242E800310029FD
:10348000F3D12023AB67EB67C5F88030002385F8C4
:10349000743003201DE02A6852E8003F23F4D07303
:1034A00042E800310029F6D12A6802F1080353E806
:1034B000003F23F00103083242E800310029F3D134
:1034C0002023AB67EB67002385F87430032000E00E
:1034D0000020BDE8F8832DE9F04182B01E46836FDD
:1034E000202B56D104460D469046002955D0002A7F
:1034F00055D090F87430012B53D0012380F87430EC
:103500000023C0F8803021238367FEF74DF807467B
:10351000A4F85080A4F85280A368B3F5805F05D06A
:103520004FF00008002384F8743014E0236913B1CD
:103530004FF00008F6E7A8460025F3E738F8023B0D
:103540002268C3F308031385B4F8522092B2013AFB
:1035500092B2A4F85220B4F852309BB273B10096E4
:103560003B46002280212046FFF74DFFD8B9002DB1
:10357000E4D015F8012B23681A85E5E700963B4651
:10358000002240212046FFF73EFF70B92023A367A9
:1035900000E0022002B0BDE8F0810120FAE701203E
:1035A000F8E70220F6E70320F4E70320F2E730B55E
:1035B00083B004460023C0F88030FDF7F5FF0546D0
:1035C0002268126812F0080F0DD123681B6813F0EF
:1035D000040F16D12023A367E3670020206684F838
:1035E000740003B030BD6FF07E43009303460022A9
:1035F0004FF400112046FFF706FF0028E5D0032016
:10360000EFE76FF07E4300932B4600224FF48001DA
:103610002046FFF7F8FE0028DCD00320E1E768B37E
:1036200010B50446836F03B32423A367226813688D
:1036300023F0010313602046FFF750FD012813D04B
:10364000636ABBB92268536823F4904353602268CD
:10365000936823F02A0393602268136843F0010300
:1036600013602046FFF7A3FF10BD80F87430FDF70C
:1036700013FED9E72046FFF761FEE3E7012070471C
:103680002DE9F04786468C460846089E1546744646
:103690001946002B40F0C2808542B2FA82F245D929
:1036A0004AB1C2F1200300FA02FC2EFA03F395405E
:1036B00043EA0C0C94404FEA154EA8B2BCFBFEF84E
:1036C000230C0EFB18CC08FB00F943EA0C43994588
:1036D00028D9EB1808F1FF3704D2994502D9A8F18F
:1036E00002072B44A3EB0903A4B2B3FBFEFC0EFBC1
:1036F0001C330CFB00F044EA0344A04214D92C19FB
:103700000CF1FF3304D2A04202D9ACF102032C44E5
:10371000241A43EA07401EB1D4400023346073608A
:10372000BDE8F0874746DDE76346F1E792BB431B00
:1037300001214FEA154EAFB2B3FBFEFC200C0EFB8D
:103740001C330CFB07F840EA0343984562D9EB1899
:103750000CF1FF3004D2984502D9ACF102002B44A1
:10376000A3EB0803A4B2B3FBFEFC0EFB1C330CFB63
:1037700007F744EA0344A7424ED92C190CF1FF3352
:1037800004D2A74202D9ACF102032C44E41B43EA61
:103790000040C0E7C2F1200320FA03F195409040B9
:1037A0002EFA03F303434FEA154EAFB2B1FBFEFC12
:1037B0000EFB1C10190C0CFB07F841EA0041884570
:1037C00004FA02F422D969180CF1FF3004D28845BA
:1037D00002D9ACF102002944A1EB08019BB2B1FB74
:1037E000FEFC0EFB1C110CFB07F743EA01439F4252
:1037F0000ED9EB180CF1FF3104D29F4202D9ACF183
:1038000002012B44DB1B41EA004192E76046E3E7FB
:103810006146F7E76046A3E76346B7E7834206D908
:1038200016B9002108467BE7C6E900E0F9E7B3FADC
:1038300083F78FB9834201D3724508D8BEEB0204E7
:1038400060EB030301209C461EB9002168E738465F
:10385000FAE7C6E9004CF8E7C7F1200CBB4022FAB2
:103860000CF41C432EFA0CF120FA0CF3B84001437F
:103870004FEA14490EFA07F5B3FBF9F81FFA84FE74
:1038800009FB18300B0C08FB0EFA43EA00439A457B
:1038900002FA07F240D9E31808F1FF3004D29A4542
:1038A00002D9A8F102002344A3EB0A0389B2B3FBB7
:1038B000F9F809FB183308FB0EFE41EA03418E4577
:1038C0002CD9611808F1FF3304D28E4502D9A8F132
:1038D0000203214443EA0040A0FB0298A1EB0E0141
:1038E0004145CE46434602D306D14D4504D2B9EBFD
:1038F000020E68EB04030138002EA6D0B5EB0E02D1
:1039000061EB030101FA0CFC22FA07F34CEA030312
:10391000F940C6E9003198E74046C5E74346D9E794
:10392000002301461A46184601F082BE014B186872
:10393000704700BF0C00002038B5084D084BED1A49
:10394000AC1007D0043D1D44013C55F8043998479C
:10395000002CF9D1BDE8384005F0DABE249B000800
:10396000209B000870B50D4E0D4D761BB61006D08D
:10397000002455F8043B01349847A642F9D1094E7A
:10398000094D761B05F0BEFEB61006D0002455F892
:10399000043B01349847A642F9D170BD189B00083A
:1039A000189B0008209B0008189B0008830730B56F
:1039B00048D0541E002A3FD0CAB2034601E0013C61
:1039C0003AD303F8012B9D07F9D1032C2DD9CDB2A1
:1039D00045EA05250F2C45EA054536D9A4F1100224
:1039E00022F00F0C03F1200EE6444FEA121C03F103
:1039F000100242E9045542E9025510327245F8D1ED
:103A00000CF1010214F00C0F03EB021204F00F0C86
:103A100013D0ACF1040323F003030433134442F83E
:103A2000045B9342FBD10CF003042CB1C9B21C44DB
:103A300003F8011B9C42FBD130BD64461346002CA9
:103A4000F4D1F9E703461446BFE71A46A446E0E777
:103A50000FB400B5074983B004AB086853F8042BD2
:103A60008168019300F008F803B05DF804EB04B03E
:103A7000704700BF0C0000202DE9F04FD5B01C4668
:103A8000894690460546089003F0CEF802681792E2
:103A900010460D94FCF7B4FC16901DB1AB6B002BD7
:103AA00000F03282D9F86430B9F90C20DE0791B207
:103AB00002D48D0540F1868688040AD4D9F8643092
:103AC00042F4005223F40053A9F80C2091B2C9F833
:103AD00064300B0740F1C980D9F81030002B00F09A
:103AE000C48001F01A030A2B00F0CD8000230024CB
:103AF000CDE92933CDE91833CDE91B3312931A935D
:103B00000A930023CDE9143444462BAA2378289243
:103B10009246C846002B00F07381A34604E01BF8D0
:103B2000013F002B00F0C480252BF8D1BBEB04052E
:103B300040F0C2809BF80030002B00F06181002330
:103B40004FF0FF329BF801508DF8833009930BF151
:103B5000010B079299462B2620270BF1010BA5F1AB
:103B600020035A2B00F2C380DFE813F0F802C100F3
:103B7000C100F302C100C100C1006A00C100C10060
:103B80005C026C02C10067027602C10071025B0038
:103B90005B005B005B005B005B005B005B005B004D
:103BA000C100C100C100C100C100C100C10052017B
:103BB000C100FF01D701520152015201C100C100F1
:103BC000C100C100EE02C100C1002E02C100C1004F
:103BD000C1000902C100DE02C100C1000D07C10021
:103BE000C100C100C100C100C100C100C10052013B
:103BF000C100FF01D901520152015201C702D9018E
:103C0000D201C100BA02C10090023002AA02D20160
:103C1000C10009027C000A07C100C100EB06C10017
:103C20007C00A5F1300300221BF8015B02EB82024D
:103C300003EB4202A5F13003092BF5D909928EE777
:103C4000089802F0F1FF43681B931846FCF7D8FB75
:103C50001C900546089802F0E7FF83681A93002D30
:103C600040F061869BF8005077E70898494601F0DC
:103C700075FC002841F0ED82B9F80C1001F01A0330
:103C80000A2B7FF433AFB9F90E30002BFFF62EAFBD
:103C9000D9F86430DD0702D4880541F136810898EF
:103CA00023464246494655B0BDE8F04F01F016BCE8
:103CB000BBEB040500F0A4802A9B2B442A93299B8C
:103CC0000133072BCAE90045299305DC0AF1080AEC
:103CD0000A9B2B440A932DE7089828AA414603F033
:103CE000A3FF002841F068830DF1AC0AF0E7002D36
:103CF00000F0868000228DF8EC508DF8832001239F
:103D0000CDE90B32069307921092139211923BACBD
:103D100019F002030E9302D0069B0233069319F0AA
:103D200084032A9F0F9305D1099B06995E1A002EE2
:103D300000F3B0808AB1299A0DF183010132013775
:103D4000CAF80010072A4FF001012A972992CAF8F1
:103D5000041000F3E3830AF1080A0E9B83B1299B48
:103D600021AA01330237CAF80020072B4FF00202C4
:103D70002A972993CAF8042000F3C4830AF1080A99
:103D80000F9B802B00F09282079B0B9A9E1A002EAD
:103D900000F3D88219F4807F40F02C820B9BCAF884
:103DA00004301F44299BCAF800400133072B2A978F
:103DB000299300F343830AF1080A19F0040F05D090
:103DC000099B069A9C1A002C00F3B483DDE90923B1
:103DD00006998A42ACBF9B185B180A93002F40F0EB
:103DE000F282002329930C9B1BB10C99089802F0D6
:103DF000FBFD0DF1AC0A5C462378002B7FF48DAE01
:103E00002A9BC146002B40F0068700232993E8E255
:103E10000D9B073323F00701F1E8022323F000464E
:103E2000CDE914230D9117461046BA4B31464FF099
:103E3000FF32FCF7A9FF002840F01285B54B384649
:103E400031464FF0FF32FCF781FF002840F0088533
:103E5000DDE9140100220023FCF76EFF002840F08A
:103E6000D5869DF88320AC4CAC4B29F0800903210A
:103E7000472DC8BF1C4600230C9306910B91079356
:103E8000109313931193002A3FF442AF069B013322
:103E900006933DE7102E299A25DD39461023274643
:103EA000089C04E0103E102E0AF1080A19DD0132C8
:103EB0009B481031072ACAE90003CDE92921F1DD29
:103EC00028AA414620460DF1AC0A03F0ADFE0028B9
:103ED00040F08182103E102EDDE929214FF01003C1
:103EE000E5DC3C460F4601328D4BCAF8046037448E
:103EF000072ACDE92927CAF8003000F3EE859DF89E
:103F000083200AF1080A15E7089802F08BFCC9E53E
:103F10009BF8005049F020091FE649F0100919F0FC
:103F2000200F0D9B00F03384073323F007031A465C
:103F300011465B6851F8082B0D911946002BC0F211
:103F40003584079B013300F0CA8252EA010329F04D
:103F5000800640F0C582079B002B40F0C682B14628
:103F6000002307930B9354AC1AE10D9B002253F8E6
:103F7000041B8DF883208DF8EC100D93BFE60D9E89
:103F8000079B56F8044B00278DF88370002C00F037
:103F900016855A1C00F0DA851A4639462046FCF789
:103FA0002FF90C90002801F015810C9B07971B1B23
:103FB0000B930D9623EAE3739DF8832006930C97E9
:103FC0001097139711975EE749F0100919F0200137
:103FD0000D9B00F0CE83073323F00703596853F895
:103FE000082B0D9329F4806600230020079C8DF890
:103FF0008300601C00F0BD8052EA010026F08009B9
:1040000040F0B680002C40F09485002BA8D116F02B
:1040100001030B9300F00C8430238DF84F310DF227
:104020004F14BDE00D9B53F8042B0992002A80F237
:10403000D283099A0D93524209929BF8005049F09D
:1040400004098AE59BF800508DF8836085E59BF8AC
:10405000005049F0800980E55A4612F8015B2A2D8C
:1040600001F01782A5F13003092B934698BF002277
:1040700001F2BC801BF8015B02EB820203EB4202FF
:10408000A5F13003092BF5D9079268E50D9A19F0CF
:10409000200F02F1040340F03D8419F0100F40F0AE
:1040A0004D8519F0400F40F07E8619F4007F00F036
:1040B00045850D9A0A9912680D9311705C469BE62E
:1040C0000D9B53F8042B0D9347F63003ADF8843065
:1040D000144B189349F0020600210223782584E747
:1040E0009BF800506C2D03BF9BF8015049F020094C
:1040F0000BF1010B49F010092FE59BF80050682DDA
:1041000003BF9BF8015049F400790BF1010B49F012
:10411000400922E5FFFFEF7F849700088897000899
:10412000C89700089497000849F0100616F020017F
:104130000D9B00F01183073323F00703596853F8F0
:10414000082B0D93012350E79BF8005049F0080914
:1041500003E59BF8005049F00109FEE49DF8833027
:104160009BF80050002B7FF4F8AC8DF88370F4E4DA
:104170004E46012B00F0B481022B54AC1FD118988D
:1041800002F00F031209C35C04F8013D42EA017218
:10419000090952EA0103F3D154AB1B1BB1460B933F
:1041A0000B9907989DF8832081424FF00003B8BF18
:1041B00001460C93069110931393119363E602F05A
:1041C0000703D20842EA4172C908303352EA0107B4
:1041D000204604F8013DF2D1F707DDD5302BDBD0C6
:1041E0003023023804F8013C54AB1B1AB1460B9340
:1041F0000446D5E7652D40F32C81DDE9140100224A
:104200000023FCF78FFD002800F0CD81299BBB4ADD
:10421000CAF80020013301370122072B2A9729937E
:10422000CAF8042000F368840AF1080A229B129A53
:10423000934280F2C282169B179A1F44CAE9002358
:10424000299B2A970133072B299300F3AC830AF1AA
:10425000080A129B5C1E002C7FF7AFADA84A299B71
:104260000E92102C40F35884CDF81C90089EC14645
:104270001025904605E00AF1080A103C102C40F386
:10428000488401331037072BCAE90085CDE9293767
:10429000F1DD28AA4946304603F0C6FC002840F06C
:1042A0009B80DDE929370DF1AC0AE6E7099B069A08
:1042B0009E1A002E7FF768AD102E299B41F30A80CD
:1042C0008F490F9440463A46A846089C0E910F46E7
:1042D000054604E0103E102E0AF1080A19DD0133EC
:1042E00010321021072BCDE92932CAF80070CAF824
:1042F0000410EFDD28AA294620460DF1AC0A03F090
:1043000093FC002840F0D081103E102EDDE92932C8
:10431000E5DC17460F9C2A464546904601330E9A27
:10432000CAF800203744072BCDE92937CAF80460C2
:1043300000F32C83079B0B9A9E1A002E0AF1080AA1
:104340007FF728AD102E299B40F34F846C490794CA
:1043500040463A46A846089C0E910F46054604E0A2
:10436000103E102E0AF1080A19DD01331032102117
:10437000072BCDE92932CAF80070CAF80410EFDD26
:1043800028AA2946204603F04FFC002840F08C81E3
:10439000103E102EDDE929320DF1AC0AE5DC17469E
:1043A000079C2A464546904601330E9ACAF80020DB
:1043B0003744072BCDE92937CAF8046000F3BF81E1
:1043C0000AF1080AE6E4089828AA414603F02CFC02
:1043D00000283FF406ADC1460C9911B1089802F0CF
:1043E00003FBD9F86420B9F80C30D40702D498053F
:1043F00040F16C83590600F138870A9855B0BDE842
:10440000F08F169B17991F44CAE90013299B2A971E
:104410000133072B299300F369850AF1080A002A62
:10442000C0F23287129ACAF8004001331744072BB2
:10443000CDE92937CAF804207FF7BDAC089828AA2F
:10444000414603F0F1FB0028C5D12A9F0DF1AC0ACB
:10445000B3E4129B299D012B07F1010705F101052A
:104460000AF1080640F322810123072DCDE92957DF
:10447000CAF80040CAF8043000F3BE82169B179AAF
:1044800001351F44072DC6E90023CDE9295700F364
:10449000BF820836129BDDE9140103F1FF3A0022C6
:1044A0000023FCF73FFC002840F01A81013501345D
:1044B0005744072DCDE929573460C6F804A000F30E
:1044C00003810836199B736001351F44072D24AB07
:1044D000CDE929573360B1DC06F1080A6DE44E4698
:1044E0000A2A71F1000380F09F82303201238DF897
:1044F0004F21B1460B930DF24F1451E6C4970008BB
:10450000D8970008089828AA414603F08DFB002898
:104510007FF461AF2A9F0DF1AC0A31E4089828AA14
:10452000414603F081FB00287FF455AF2A9F0DF12F
:10453000AC0A12E4102C299B1FDD089E102504E014
:10454000103C102C0AF1080A17DD0133BD4A103760
:10455000072BCAE90025CDE92937F1DD28AA414614
:1045600030460DF1AC0A03F05FFB00287FF433AF57
:10457000103C102CDDE92937E7DC0133B14ACAF8D9
:1045800004402744072BCDE92937CAF800207FF7DC
:104590001DAC089828AA414603F046FB00287FF48A
:1045A0001AAF2A9F12E4229A002A40F31981DDE90A
:1045B00011639E42A8BF1E46002E0BDD299B0133CE
:1045C0003744072BCAE900462A97299300F3D98577
:1045D0000AF1080A119D002EA8BFAD1B002D00F3A3
:1045E000CF82119B19F4806F23440B9340F0EE842B
:1045F000229A129B9A4203DB19F0010F00F0C48348
:10460000169B17991F44CAE90013299B2A97013367
:10461000072B299300F3D0850AF1080A129BE518AD
:104620009C1A0B9BED1AA542A8BF2546002D0DDD57
:10463000CAF80030299BCAF8045001332F44072BD5
:104640002A97299300F3D6850AF1080A002DA8BFFE
:10465000641B002C7FF7B1AB7B4A299B0E92102C78
:1046600040F35A82CDF81C90089EC1461025904612
:1046700005E00AF1080A103C102C40F34A8201338D
:104680001037072BCAE90085CDE92937F1DD28AAC3
:104690004946304603F0C8FA00287FF49DAEDDE9B4
:1046A00029370DF1AC0AE6E7A94695E619F0010FA6
:1046B0007FF4DAAE0123072DCDE92957CAF800406F
:1046C000CAF804307FF7FEAE089828AA414603F0E6
:1046D000ABFA00287FF47FAEDDE929572BAEF1E677
:1046E000BAF1000F7FF7EEAE574B0E93BAF1100FF1
:1046F00040F33A82CDF81CB0CDF82C901024C1467E
:104700009B46DDF8208006E00836AAF1100ABAF1CF
:10471000100F40F3248201351037072DC6E900B48D
:10472000CDE92957F0DD28AA4946404603F07CFA36
:1047300000287FF451AEDDE929572BAEE5E7089854
:1047400028AA414603F070FA00287FF444AE2A9F5D
:104750000DF1AC0AFFF71EBB53F8042B0D9316F0B6
:1047600010036CD116F0400064D0194692B20123B8
:104770003BE453F8042B0D9319F010037FF432AC93
:1047800019F0400000F02A8292B219462AE453F848
:10479000042B0D9319F0100F5ED119F0400F57D074
:1047A00042F3C0310B4612B2FFF7C8BB524261EB75
:1047B00041014E462D20012318E419F0010F3FF46A
:1047C000FCAA38E5D9F8580002F03CFAB9F90C20F7
:1047D00091B2FFF771B99BF800500D93FFF7BDB987
:1047E000299B1A49CAF80010013301370121072B10
:1047F0002A972993CAF8041000F3B0840AF1080A32
:10480000002A7FF4FEAD129A09F0010313433FF42E
:10481000D4AA169B179A1F44CAE90023299B2A97FA
:104820000133072B299300F361830AF1080AF9E5A4
:1048300054ACB5E416F400711CBFD2B2014601239A
:10484000FFF7D3BBC8970008D8970008C4970008A3
:1048500019F4007F40F0A182D1170B46FFF76EBB21
:10486000DDE9140102460B46FCF78EFA002840F001
:10487000CC85612D00F09E84412D00F09C82079A2A
:1048800025F02003511C069300F09085472B04D19E
:10489000002A134608BF01230793DDE914010A46E5
:1048A000002A49F48073CDF83890C0F24C849946C0
:1048B0000023CDE90B0317461D93A5F14103252BDA
:1048C00000F2BE81DFE813F03003BC01BC01BC0183
:1048D00027032C03BC01BC01BC01BC01BC01BC0111
:1048E000BC01BC01BC01BC01BC01BC01BC01BC01E0
:1048F000BC01BC01BC01BC01BC01BC01BC01BC01D0
:10490000BC01BC01BC01BC01BC01BC01BC01BC01BF
:1049100027032C0312680D930A9B1360DB17536067
:104920005C46FFF769BA1A9B9BF80050002B3FF4D6
:1049300014A91B78002B3FF410A949F48069FFF7F4
:104940000CB9BA4B189319F020010D9B47D00733CF
:1049500023F00703596853F8082B0D9319F0010F42
:1049600009D052EA010306D030238DF8855049F072
:1049700002098DF8843029F480660223FFF735BBE5
:104980004E46FFF7D3BBAA4B1893DCE7089828AA3A
:10499000414603F049F900287FF41DAD2A9F0DF12F
:1049A000AC0AFFF7F1B9089828AA414603F03CF990
:1049B00000287FF410AD2A9F0DF1AC0A49E4062BC4
:1049C000214628BF062307940C9422460693994C4F
:1049D0000D960B93109113911191FFF754BA53F860
:1049E000042B0D9319F01003B8D119F0400000F01A
:1049F000EF8092B21946B1E7089828AA414603F021
:104A000013F900287FF4E7ACDDE929572BAE35E533
:104A1000089828AA414603F007F900287FF4DBAC88
:104A2000DDE929572BAE35E5CDE90BB606F48067F5
:104A3000DFF804921A9E06954FF0000C54AC05E086
:104A40000A2A71F1000135D35A462946531843F119
:104A50000003A9FB030525F0030000EB95001B1ADA
:104A6000D01A4FF0CC3561F1000E05FB00F509FBC3
:104A70000E55A0FB09B005440BF0010E0520AEFB5E
:104A8000000EC0184FEA5B0B303004F8010C4BEA03
:104A9000C57B0CF1010C013C6D08002FD0D03378A0
:104AA0009C45CDD1BCF1FF0FCAD00A2A71F100019B
:104AB00080F09F801A96DDE90BB654AB1B1B069D58
:104AC000CDF848C0B1460B93FFF76ABBD9F8580040
:104AD00002F0BAF8B9F80C308CE4089828AA4146DC
:104AE00003F0A2F800287FF476AC9DF883202A9F7B
:104AF0000DF1AC0AFFF71EB9089828AA414603F049
:104B000093F800287FF467AC2A9F0DF1AC0AFFF7F9
:104B10008DBBC846DDF81C900E9ACAF80020013300
:104B20002744072BCAF80440CDE929377FF743A96A
:104B300084E4012B4E467FF41FABD6E40D9A0A990C
:104B400012685C4611600D93FFF756B9204607972F
:104B50000D96FBF755FC03460B90FFF72BBAC846A2
:104B6000DDF81CB0DDF82C900E9B33600135574406
:104B7000072DCDE92957C6F804A07FF7A2ACA3E51D
:104B8000102D299B40F391842C4907943A46089CA8
:104B90000E9147461026884605E00AF1080A103DA6
:104BA000102D40F3EA8101331032072BCAE9008649
:104BB000CDE92932F1DD28AA3946204603F034F840
:104BC000002840F04083DDE929320DF1AC0AE6E728
:104BD00019F400711CBFD2B20146BFE619F400718E
:104BE0001CBFD2B20146FFF7FDB9144A0E92FFF77F
:104BF000DBBB1C9B1B99E41A1A46204602F0A6FF59
:104C0000737803B101364FF0000C1DE72D228DF8AB
:104C10008320FFF728B9089828AA414603F004F832
:104C200000283FF4F2A8FFF7DCBB00BF9497000810
:104C3000A8970008BC970008CDCCCCCCD89700082A
:104C4000079B0F93022326A9049123A90F9E03918A
:104C500022A900930B9A089801963B46029100F016
:104C6000C7FD069B472B044600F08682462B064470
:104C700005D10378302B00F0D783229B1E440B987C
:104C8000394600220023FCF74DF8002800F0888107
:104C900033461B1B1293229B1193069B472B00F05C
:104CA0005981069B462B00F0B5820699119BEAB20A
:104CB000412908BF0F3203F1FF3306BFD2B20121F1
:104CC0000021002B2293B8BF119B8DF89020BABF12
:104CD000C3F101032D222B22092B8DF8912040F3E3
:104CE00007830DF19F06B44F3246104687FB032120
:104CF000DA17C2EBA10202EB8201A3EB41013031D2
:104D000000F8011C19466329134600F1FF32ECDC60
:104D10003033D9B2831E9E4202F8011C40F2B483A4
:104D200013460DF1920201E013F8011B02F8011B7A
:104D30009E42F9D10DF1A1030DF192021B1A134409
:104D400024AA9B1A1993129B199A012B1A440B92AD
:104D500040F3FD820B9B169A13440B930E9B0B9A08
:104D600023F4806343F4807922EAE27200231093F3
:104D70000692139311931D9B002B40F0F7809DF832
:104D800083200793FFF77FB8129B0B99E5186D1AE4
:104D90009C1AA542A8BF254658E442F3C0110B4611
:104DA00052B2FFF7CBB80D9A0A9912680D93118091
:104DB0005C46FFF721B858238DF8853030238DF8F5
:104DC000843049F002030E93079B632B00F3868225
:104DD00000230C933BAC25F020030693159B002B7E
:104DE00049F48179C0F2B2811F46149B0B930023D2
:104DF0001D93612D7FF461AD394622AA0B9802F014
:104E000027FE00224FF07F53FBF724FD00220023F2
:104E100006460F46FBF786FF08B101232293674B36
:104E20000B93079BCDF87880013BCDE90F5BCDE973
:104E3000129ADDF82CB01F941D46A04605E0002212
:104E40000023013DFBF76EFFE0B95D4B00223046C9
:104E50003946FBF7FFFC0F460646FBF7ABFF04465F
:104E6000FBF78EFC0B46024639463046FBF73AFB11
:104E70001BF80430C14608F8013B6B1CAA460646E5
:104E80000F46DCD14F4BCDF84490002230463946D6
:104E9000DDE90F5BDDF84890CDF840A01294CDF825
:104EA0003C80DDF84CA0DDE91E84FBF763FF0028A1
:104EB00040F03082434B304639460022FBF732FF48
:104EC00018B1129BDF0700F12582109B002B09DB34
:104ED000109B0F9901330B44302201F8012B8B42B8
:104EE000FBD10F910F9B1B1B1293D4E6089828AAA5
:104EF000414602F099FE00287FF46DAADDE92937CA
:104F0000229A0DF1AC0AFFF78ABAD9F8580001F0DD
:104F10009BFEFEF7C4BE079B01330F93022392E66C
:104F2000079B0F9303238EE6394622AA0B9802F0C3
:104F30008FFD00224FF07F53FBF78CFC00220023F3
:104F400006460F46FBF7EEFE08B1012322931E4BE7
:104F50000B9366E7119BDE1C03DB079A9A4280F2F3
:104F6000D480023D25F0200306939EE62D220023E7
:104F70008DF883200793FEF789BF079CB846174634
:104F800001330E9ACAF800202F44072BCDE92937A8
:104F9000CAF8045000F3E0810AF1080AFFF721BBC8
:104FA000269BB342BFF475AE30215A1C269219706D
:104FB000269B9E42F9D86CE6676666669497000861
:104FC000000030400000E03FA8970008129B0B9DB6
:104FD000CDF838B05246C246DDF84C80CDF82C9062
:104FE000E31807931A9EDDF87090DDF820B0109B4F
:104FF0000F943946B8F1000F2ED0002B6BD1013E33
:1050000008F1FF381B9BC2E90039299B0133494451
:10501000072B2A91299362DC0832079B30785B1BAF
:105020008342A8BF0346002B1F460ADD29980130A2
:1050300019440728C2E900532A91299058DC307896
:105040000832002FACBFC41B0446002C17DC0544FB
:10505000109BB8F1000FD0D1002B3CD10F9C129BBC
:10506000DDF82C90DDF838B01A96E3189D4228BF81
:105070001D46D0460F4692460B95FFF7B9BA102C45
:1050800029981BDD102704E0103C102C02F10802C7
:1050900014DD01309E4B10310728C2E90037CDE9FD
:1050A0002901F1DD28AA5146584602F0BDFD48BB52
:1050B000103C102CDDE929012BAAEADC0130944BCD
:1050C000546021440728CDE92901136066DC30785B
:1050D00008320544BCE7109B013B109392E728AAD5
:1050E0005146584602F0A0FD60B92A992BAA94E7D0
:1050F00028AA5146584602F097FD18B930782A99E7
:105100002BAA9EE7D146FFF767B9DDE91123934249
:1051100000F3B0800E9B13F0010F119B00F04A8149
:10512000169A13440B930E9B590503D5119B002B24
:1051300000F345810B9B23EAE37306936725002365
:105140001093139317E6994600230C93DDE914237B
:1051500003F100472D230B921D934AE6089828AAD5
:10516000414602F061FD00287FF435A9229A2A9F6A
:105170000DF1AC0AFFF744BB0E9BDB0766D4269B00
:1051800087E5089828AA414602F04EFD00287FF4E2
:1051900022A92A9F0DF1AC0AFFF71CBA28AA514692
:1051A000584602F041FD0028ACD130782A992BAA4C
:1051B00005444DE77823FFE5089828AA414602F008
:1051C00033FD00287FF407A9229A2A9F0DF1AC0A2B
:1051D000FFF724BA079B9DF883200D9606930B9347
:1051E0000790109013901190FEF74DBE0023079387
:1051F000FEF7B5BC089828AA414602F015FD002824
:105200007FF4E9A8229C129B2A9F1C1B0DF1AC0A7B
:10521000FFF71CBA0E9B1199079A03F001030029AE
:1052200043EA020340F32081002B40F01781119BD9
:105230000B9366250E9B5A0500F1C2800B9B23EA57
:10524000E37306937BE7B946FFF7C6B80F9E264483
:1052500015E5D9F86430DF0707D4B9F80C309E059E
:1052600003D4D9F8580001F0EFFC4FF0FF330A9354
:10527000FFF7C3B8129B169A9A18119B0B92002B3A
:1052800040F3E0806725D5E75542103280F2108167
:105290001F4907943A46089C0E91474610268846B7
:1052A00004E00AF1080A103D102D62DD01331032CE
:1052B000072BCAE90086CDE92932F2DD28AA394652
:1052C000204602F0B1FC0028BDD1DDE929320DF104
:1052D000AC0AE8E70E4A0E92FFF720B80898591C6E
:1052E00001F024FD0446002800F0E5800C9072E5F2
:1052F000002940F0B08030228DF892200DF1930209
:10530000303302F8013B24ABD31A19931BE500BFDD
:10531000D8970008119B0F9A0B99269312F8013C1D
:10532000C97B994240F0B380302002F8010C269AE4
:10533000531E269312F8013C9942F6D0392B0BBF2D
:105340000B9B01339B7ADBB202F8013CCAE50E9B52
:10535000D8077FF503ADFDE4089828AA414602F07E
:1053600063FC00287FF437A82A9F0DF1AC0AFFF7F1
:1053700038B9079CB846174601330E9ACAF8002080
:105380002F44072BCDE92937CAF804507FF74DAADF
:10539000089828AA414602F047FC00287FF41BA881
:1053A000DDE929370DF1AC0AFFF73CB80623079376
:1053B000FFF773BA0B93B6E6C146FFF712B867253D
:1053C0001A990B78FF2B7FD00026119A304603E004
:1053D00001300131FF2B08D0934206DAD21A4B7804
:1053E000002BF5D10B780136F4E71A911192139046
:1053F0001096139A109B1C9913440B9A01FB0323DC
:105400000B9323EAE3730693B5E4159B304C002B12
:10541000B4BF2D229DF883202E4BB8BF8DF883207A
:1054200029F08009FEF723BD0B983946002200239E
:10543000FBF778FC00287FF420AC0F9BC3F101033D
:1054400022931BE4C3F101031A4422EAE2730B9294
:105450000693672573E60DF1920251E7169BCE186D
:1054600032440B926625E5E623B9012306936625AF
:105470000B9364E6169B5E1C079B33440B9323EA55
:10548000E373069366255AE6022319935BE40F9AA9
:1054900054E70D9B9BF80150934653F8042B0D9352
:1054A00042EAE2720792FEF758BB0B4A0E9267E59A
:1054B000094A0E9260E7B8F80C3043F04003C14649
:1054C000A8F80C30FEF78DBF00231093139390E7DC
:1054D0008C97000890970008D8970008F0B51F46F1
:1054E0008B89ADF26C4D23F00203ADF80C304B6E9E
:1054F0001993CB89ADF80E30CB6907934B6A0993AA
:105500001AAB009304934FF480631546064602934A
:10551000059316A800230C46069301F08FFB2A463C
:105520003B4669463046FEF7A7FA051E07DB69468B
:10553000304601F043F9002818BF4FF0FF35BDF8A1
:105540000C305B0603D5A38943F04003A381169872
:1055500001F076FB28460DF26C4DF0BD38B5334BAB
:105560001B6805460C460BB19A6B12B3B4F90C30AC
:1055700018079AB225D5216900292DD012F0010013
:1055800007D00020A06060694042A06139B10020CE
:1055900038BD950758BF6069A0600029F7D1120691
:1055A00058BF0846F4D543F04003A3814FF0FF30C5
:1055B00038BD184601F036F9B4F90C3018079AB224
:1055C000D9D4D1062AD5520714D4216943F008034F
:1055D000A3819AB20029D1D102F42070B0F5007FE6
:1055E000CCD02146284601F031FBB4F90C302169BA
:1055F0009AB2C3E7216B51B104F14002914204D049
:10560000284601F0F1F9B4F90C3000222263216937
:105610000022C4E9001223F02403D7E7092243F053
:1056200040032A604FF0FF30A38138BD0C000020FA
:105630002DE9F8431D4D0646286898460F469146C9
:1056400001F000FB1A4B1B68D3F848411CB32868D3
:1056500065681F2D24DC4EB96B1C0235636044F86D
:10566000257001F0F1FA0020BDE8F88304EB850114
:105670000123C1F88890D4F88821AB401A43022E48
:10568000C4F88821C1F80881E6D1D4F88C211A43E6
:10569000C4F88C21E0E703F5A674C3F84841D6E7C7
:1056A00001F0D2FA4FF0FF30DEE700BF38040020EF
:1056B00080970008024B13B10248FEF731B97047DA
:1056C00000000000393900082DE9F04F03690C692A
:1056D000A34283B0C0F28880013C01F11405A3000D
:1056E00000F11408009355F8243058F824200133B1
:1056F0008A469A4208EB8401814605EB84070191B2
:10570000B2FBF3F63AD34FF0000CAE464046624689
:1057100063465EF804BB01681FFA8BFC06FB0C3382
:105720004FEA134C4FEA1B4B06FB0BCC9BB2D31A30
:105730001FFA8CF213FA81F3C2EB114202EB2342FF
:105740009BB243EA0243774540F8043B4FEA2242CA
:105750004FEA1C43DDD2009B58F8033073B9019B1C
:10576000043B984504D307E0984504F1FF3403D285
:1057700053F80429002AF7D0C9F81040514648468A
:1057800002F02AF800282BDB01364146002355F8A9
:10579000040BD1F800C082B29A1A030C12FA8CF2F0
:1057A000C3EB1C4303EB224392B242EA0342AF42F3
:1057B00041F8042B4FEA2343E9D258F8242008EBA0
:1057C00084036AB9043B984504D307E0984504F183
:1057D000FF3403D253F80429002AF7D0C9F8104047
:1057E000304603B0BDE8F08F002003B0BDE8F08F75
:1057F0002DE9F04F016C9FB016461F46CDE90467B6
:105800002B9C824649B1426C4A60012393408B60D5
:1058100001F084FD0023CAF84030B7F10008B4BF9E
:10582000012300232360764BBCBF28F00048CDF84D
:10583000148033EA080300F0AC80DDE90434002270
:10584000184621460023CDE90A01FBF76BFA05460D
:1058500078B12A9A012313602C9B002B00F09183CE
:10586000684B2C9A1360013B039303981FB0BDE86B
:10587000F08F1CAB01931DAB00935046DDE90A236A
:1058800002F074F85FEA1854834640F09880DDE92E
:105890001C542C4404F23243202B40F38883C3F180
:1058A000400308FA03F804F2124326FA03F348EA25
:1058B0000300FAF755FF0123013CA1F1F87112939F
:1058C000514B0022FAF70EFE47A3D3E90023FAF763
:1058D000C1FF47A3D3E90023FAF706FE0646204698
:1058E0000F46FAF74DFF44A3D3E90023FAF7B2FFBE
:1058F00002460B4630463946FAF7F6FD06460F4695
:10590000FBF758FA002280460690002330463946BD
:10591000FBF712FA002840F026832D1B069C6B1E15
:10592000162C089300F21383384B03EBC403D3E91E
:105930000023DDE90A01FBF7FFF900286CD0631EA4
:10594000069300230F936B1E002BC0F206830023E7
:105950000C93069B002B65DA069B0C9A0D93D21ACA
:10596000C3F1000900230693289B0C92092B63D8EE
:10597000052B40F31A83043B28930024289B023B09
:10598000032B00F25A86DFE813F01E041B041204F6
:10599000F3032A9AC8F3130842F20F7358EA060871
:1059A00013601AD12C9B002B00F05786184B0393E1
:1059B00008332C9A039813601FB0BDE8F08FDDE91F
:1059C0000A12C2F31303084643F07F511295A4F262
:1059D000FF341C9D41F4401172E72C9B002B40F0DA
:1059E000B5830C4B039340E761436F63A787D23FB6
:1059F000B3C8608B288AC63FFB799F501344D33FBE
:105A00000000F07FC59700080000F83FD898000814
:105A1000E8970008F49700086B1E002BC0F27A8408
:105A20000F900C90089B069A0D9213440893289BA4
:105A3000092B4FF000099BD90023CDE9283301241D
:105A40004FF0FF330E940993099B13930021CAF87A
:105A50004410504601F03CFC0390002800F0F6850D
:105A6000039BCAF84030099B0E2B00F2F980002CF2
:105A700000F0F6800D99002940F34E84BB4B01F0F5
:105A80000F0203EBC203C805D3E900454FEA211614
:105A900040F1DC83B64BDDE90A01D3E90823FBF7CB
:105AA00003F8CDE9100106F00F064FF0030886B1A8
:105AB000AF4FF10709D520462946D7E90023FAF769
:105AC000C9FE08F1010804460D46761007F10807E3
:105AD000EFD1DDE9100122462B46FAF7E5FF064635
:105AE0000F460F9B43B1A34B002230463946FBF7CC
:105AF00023F9002840F01D854046FAF741FE324662
:105B00003B46FAF7A7FE9C4B0022FAF7EDFCA1F109
